:060000000A128A110C280F
:10000800FE00030EF2000A08F3000A128A114929B9
:100018000A128A110F28F801F90183120313B50196
:1000280083010A128A111929003083120313AB00C5
:100038000030AA000030A9000030A80023082204DC
:1000480021042004031929282A287728AC01AC0A9E
:100058003A280130F4000310A00DA10DA20DA30D44
:10006800F40B2F280130F4007408AC07A31F3D28B7
:100078003E282D280130F4000310A80DA90DAA0D63
:10008800AB0DF40B402823082702031D552822082E
:100098002602031D552821082502031D552820087E
:1000A8002402031C5828592868282008A40221087B
:1000B800031C210FA5022208031C220FA6022308F5
:1000C800031C230FA702281401300310A30CA20C51
:1000D800A10CA00CFF3E031D69280130AC02031DD2
:1000E800762877283E282B08A3002A08A20029088A
:1000F800A1002808A0000800F40007307406031DBA
:10010800862887288B287030831603138F040630BF
:100118007406031D902891289728831603130F0847
:100128008F3960388F0005307406031D9C289D2880
:10013800A328831603130F088F3950388F00043013
:100148007406031DA828A928AF28831603130F08CF
:100158008F3940388F0003307406031DB428B52842
:10016800BB28831603130F088F3930388F000230ED
:100178007406031DC028C128C728831603130F0857
:100188008F3920388F007403031DCB28CC28D22840
:10019800831603130F088F3910388F007408031D56
:1001A800D628D728DB288F30831603138F058316AC
:1001B80003130F14080028308312031394008316C6
:1001C80003139101831203132D08B1002E08B20006
:1001D8002F08B3003008B40002300310B10DB20D7F
:1001E800B30DB40DFF3E031DF1283408A3003308F6
:1001F800A2003208A1003108A0000030A7007A3020
:10020800A6001230A5000030A4000A128A11182096
:100218000A128A11831203132008FF3E8316031360
:100228009300940187150716080007300A128A11EF
:1002380080200A128A110A128A1178210A128A1158
:100248000A128A11C0210A128A115030F4000030B3
:10025800F5000A128A11AD210A128A1183120313BA
:100268003508F600F7017608F4007708F5000A1259
:100278008A11AD210A128A110A128A11B7210A12AB
:100288008A1124290A128A110C280B1C4C294D2981
:1002980071298312031306185229532971291A3018
:1002A800F100F830F000F00B5729F10B5729000046
:1002B80083120313061C6129622971293508031961
:1002C800662967296929B50170293508031D6D2933
:1002D8006E297029B501B50A0B1073088A00720ED1
:1002E8008300FE0E7E0E090083160317880189011C
:1002F80001308316031386008501880183120313D6
:1003080085018601880189018B150B108B178316CF
:100318000313151416148113003083120313B0004D
:100328000130AF008630AE00A030AD000A128A114D
:10033800DF200A128A110800831603131419A5294D
:10034800A629A02911081F39031DAB29AC29A0290A
:1003580008000A128A11A0210A128A11740883124D
:100368000313930008000A128A11A0210A128A11A5
:1003780083160313111508000A128A11A0210A1204
:0A0388008A118316031311140800F4
:08400000FF3FFF3FFF3FFF3FC0
:04400E00D420FF3F7C
:00000001FF
