:060000000A128A110C280F
:10000800FE00030EF1000A08F2000A128A158F2D6D
:100018000A128A110F28F801F901FA01831603134D
:10002800B701B801B901BA01BB01BC01BD01BE01EC
:10003800BF01C001C101C201C30183010A128A15AF
:10004800962E831203135C08803983160313A000CD
:10005800831203135C08E100610783160313A600EB
:1000680083120313DB1F39283A283D28831603130C
:1000780026148316031326080319432844285628F0
:10008800260A031D482849285328003083120313E1
:10009800DC000030DB000030DA000030D9008312C9
:1000A800DB176028003083120313DC000030DB000C
:1000B8000030DA000030D90060088039E1006108BA
:1000C80083160313A006831203136008E100610777
:1000D80083160313A10083120313DF1F74287528E6
:1000E8007828831603132114831603132108031990
:1000F8007E287F289128210A031D832884288E289A
:10010800003083120313E0000030DF000030DE000F
:100118000030DD008312DF179B28003083120313A1
:10012800E0000030DF000030DE000030DD00831624
:10013800031321080319A128A228A7282608031DAC
:10014800A628A728B228003083120313DC00003049
:10015800DB000030DA000030D9002D2D83120313A4
:100168005908F3005F080A128A15DA230A128A115D
:10017800740883160313AC007308AB002B088312B2
:100188000313E100E201E301E401640883160313A9
:10019800A50083120313630883160313A4008312B4
:1001A8000313620883160313A30083120313610861
:1001B80083160313A2002C0883120313E100E20143
:1001C800E301E401640883160313AA0083120313EE
:1001D800630883160313A9008312031362088316A6
:1001E8000313A80083120313610883160313A700DF
:1001F800831203135A08F3005E080A128A15DA23D9
:100208000A128A11740883160313AC007308AB0032
:100218002B0883120313E100E201E301E401610802
:1002280083160313A207831203136208031103182A
:10023800013E0319222983160313A307831203130C
:10024800630803110318013E03192D2983160313AC
:10025800A40783120313640803110318013E03194A
:10026800382983160313A507831203138316031370
:100278002C0883120313E100E201E301E4016108A1
:1002880083160313A70783120313620803110318C5
:10029800013E0319522983160313A8078312031377
:1002A800630803110318013E03195D29831603131C
:1002B800A90783120313640803110318013E0319E5
:1002C800682983160313AA078312031383160313DB
:1002D800831203135B08F3005D080A128A15DA23F8
:1002E8000A128A11740883160313AC007308AB0052
:1002F8002B0883120313E100E201E301E401610822
:1003080083160313A2078312031362080311031849
:10031800013E0319922983160313A30783120313BB
:10032800630803110318013E03199D29831603135B
:10033800A40783120313640803110318013E031969
:10034800A82983160313A50783120313831603131F
:100358002C0883120313E100E201E301E4016108C0
:1003680083160313A70783120313620803110318E4
:10037800013E0319C22983160313A8078312031326
:10038800630803110318013E0319CD2983160313CB
:10039800A90783120313640803110318013E031904
:1003A800D82983160313AA0783120313831603138A
:1003B800083083120313E100031083160313A20D00
:1003C800A30DA40DA50D83120313E10BE0295A0810
:1003D800F3005D080A128A15DA230A128A117408D2
:1003E80083160313AC007308AB002B0883120313A6
:1003F800E100831603132C0883120313E200E301C0
:10040800E401610883160313A20783120313620829
:1004180003110318013E0319142A83160313A307B3
:1004280083120313630803110318013E03191F2ADB
:1004380083160313A4078312031364080311031814
:10044800013E03192A2A83160313A50783120313EF
:1004580083160313831203135908F3005E080A1264
:100468008A15DA230A128A11740883160313AC005A
:100478007308AB002B0883120313E10083160313E0
:100488002C0883120313E200E301E40161088316D8
:100498000313A20783120313620803110318013E12
:1004A8000319592A83160313A30783120313630836
:1004B80003110318013E0319642A83160313A407C2
:1004C80083120313640803110318013E03196F2AEA
:1004D80083160313A5078312031383160313083027
:1004E80083120313E100031083160313A20DA30D57
:1004F800A40DA50D83120313E10B772A5908F30005
:100508005D080A128A15DA230A128A1174088316FA
:100518000313AC007308AB002B0883120313E1002C
:10052800831603132C0883120313E200E301E4018A
:10053800610883160313A2078312031362080311C9
:100548000318013E0319AB2A83160313A30783126A
:100558000313630803110318013E0319B62A83160F
:100568000313A40783120313640803110318013E3D
:100578000319C12A83160313A507831203138316CD
:100588000313831203135A08F3005F080A128A152B
:10059800DA230A128A11740883160313AC0073084D
:1005A800AB002B0883120313E100831603132C08F6
:1005B80083120313E200E301E401610883160313C5
:1005C800A70783120313620803110318013E0319D6
:1005D800F02A83160313A807831203136308031171
:1005E8000318013E0319FB2A83160313A907831274
:1005F8000313640803110318013E0319062B83161D
:100608000313AA0783120313831603138312031316
:100618005B08F3005E080A128A15DA230A128A11A7
:10062800740883160313AC007308AB002B088312FD
:100638000313E100831603132C0883120313E2004B
:10064800E301E401610883160313A7078312031368
:10065800620803110318013E0319352B831603138F
:10066800A80783120313630803110318013E031933
:10067800402B83160313A90783120313640803117D
:100688000318013E03194B2B83160313AA07831281
:10069800031383160313831203135B08F3005F0825
:1006A8000A128A15DA230A128A11740883160313A8
:1006B800AC007308AB002B0883120313E100831608
:1006C80003132C0883120313E200E301E40108304A
:1006D8000310E10DE20DE30DE40DFF3E031D6C2B4D
:1006E800610883160313A707831203136208031113
:1006F8000318013E0319832B83160313A8078312DB
:100708000313630803110318013E03198E2B831684
:100718000313A90783120313640803110318013E86
:100728000319992B83160313AA078312031383163D
:100738000313220883120313E1008316031323080B
:1007480083120313E200831603132408831203138E
:10075800E30083160313250883120313E4001830FB
:100768000310E40CE30CE20CE10CFF3E031DB42B78
:10077800610883160313A707831203136208031182
:100788000318013E0319CB2B83160313A807831202
:100798000313630803110318013E0319D62B8316AC
:1007A8000313A90783120313640803110318013EF6
:1007B8000319E12B83160313AA0783120313831665
:1007C8000313083083120313E10003108316031385
:1007D800A20DA30DA40DA50D83120313E10BE92BA4
:1007E800831603132608210783120313E100E2018D
:1007F800E20D6108823E83160313AB0083120313D4
:1008080062080318013EFF3E83160313AC00392C1F
:10081800013083120313E100031083160313A70D9D
:10082800A80DA90DAA0D83120313E10B102C831632
:100838000313A51F202C212C222C271401308312EE
:100848000313E100031083160313A20DA30DA40DD7
:10085800A50D83120313E10B262CFF308316031317
:10086800AB070318AC0AFF30AC07A91F3C2C3D2C82
:100878000C2CA101A51F412C422C702CFF30220505
:1008880083120313E100FF30831603132305831239
:100898000313E200FF3083160313240583120313A6
:1008A800E3007F3083160313250583120313E40046
:1008B80064086304620461040319632C642C692CC2
:1008C80083160313A101A10A702C83160313271C96
:1008D8006E2C6F2C702C642C21080319742C752C29
:1008E800C22C0130A707003003180130A8070030D8
:1008F80003180130A907003003180130AA072A1C81
:10090800862C872CC22C270883120313E100831638
:100918000313280883120313E2008316031329081C
:1009280083120313E300831603132A0883120313A5
:10093800E4000130E500640DE40CE30CE20CE10C8A
:10094800E50B9F2C640883160313AA008312031374
:10095800630883160313A90083120313620883161E
:100968000313A80083120313610883160313A70057
:100978000130AB070318AC0A0030AC072C08803AEA
:10098800FF0080307F02031DCB2CFF302B02031C9D
:10099800CE2CCF2CDA2C7F3083160313AA0080309C
:1009A800A9000030A8000030A7000F2D83160313FC
:1009B8002C08803AFF0080307F02031DE52C0130AF
:1009C8002B020318E82CE92CF52C003083160313AE
:1009D800AA000030A9000030A8000030A700A0013C
:1009E8000F2D831603132B08A600FF30A705FF3031
:1009F800A8057F30A9050030AA05261C042D052D61
:100A0800062DA917260883120313E1000310610CB1
:100A180083160313AA00200883120313E100610858
:100A280083160313AA042A0883120313DC0083160F
:100A38000313290883120313DB0083160313280802
:100A480083120313DA008316031327088312031390
:100A5800D90008008312031346088039D0004608DD
:100A6800C7004707D700C51F3A2D3B2D3C2D57140B
:100A780057080319402D412D512D570A031D452DA7
:100A8800462D4E2D0030C6000030C5000030C40091
:100A98000030C300C517C601592D0030C60000300C
:100AA800C5000030C4000030C30042088039C700C8
:100AB8004708D0064208C7004707D800C11F652D60
:100AC800662D672D5814580803196B2D6C2D7C2D35
:100AD800580A031D702D712D792D0030C200003089
:100AE800C1000030C0000030BF00C117C201842D12
:100AF8000030C2000030C1000030C0000030BF002C
:100B08004208410440043F04031D8B2D8C2DA52D64
:100B18000030C6000030C5000030C4000030C300FB
:100B28008030C5047F30C6045008C7004708C60493
:100B38004608C2004508C1004408C0004308BF0079
:100B4800002F5708031DA92DAA2DB32D0030C20070
:100B58000030C1000030C0000030BF00002F57082F
:100B6800C700C8014808CA0058084702C900031C42
:100B7800CA0349087F3ED1004A080318013E003ED7
:100B8800D2004608CF004508CE004408CD004308EF
:100B9800CC000030C6000030C5000030C400003072
:100BA800C3000030D6000030D5000030D40000303B
:100BB800D300D801292E58080319E32DE42D042E5B
:100BC8000130C7000310CC0DCD0DCE0DCF0DC70BD6
:100BD800E62D0130C7000310C30DC40DC50DC60DA9
:100BE800C70BEF2DD61FF92DFA2DFB2D431401301D
:100BF800C7000310D30DD40DD50DD60DC70BFD2D91
:100C080042084F02031D122E41084E02031D122EE8
:100C180040084D02031D122E3F084C02031C152EDE
:100C2800162E252E56173F08CC024008031C400FED
:100C3800CD024108031C410FCE024208031C420F9B
:100C4800CF020130C7004708D8071A305802031CE2
:100C58002E2E2F2EDF2D4F084E044D044C04031961
:100C6800362E372E562E5314562E0130C700031039
:100C7800C30DC40DC50DC60DC70B3B2ED61F452E83
:100C8800462E472E43140130C7000310D30DD40D50
:100C9800D50DD60DC70B492EFF30D1070318D20A40
:100CA800FF30D207C51F592E5A2E392ED801D61F0C
:100CB8005E2E5F2E7B2EFF305305C700FF30540594
:100CC800C800FF305505C9007F305605CA004A08DC
:100CD8004904480447040319722E732E762ED8014E
:100CE800D80A7B2E431C792E7A2E7B2E732E580819
:100CF80003197F2E802EB12E0130C3070030031850
:100D08000130C407003003180130C507003003184C
:100D18000130C607461C912E922EB12E4308C700FB
:100D28004408C8004508C9004608CA000130CB007D
:100D38004A0DCA0CC90CC80CC70CCB0B9C2E4A0810
:100D4800C6004908C5004808C4004708C300013068
:100D5800D1070318D20A0030D2075208803AFF00A0
:100D680080307F02031DBA2EFF305102031CBD2EB6
:100D7800BE2ECC2EFF3083120313D1000030D200D8
:100D88000030C6000030C5000030C4000030C30089
:100D9800831203135208803AFF0080307F02031D3C
:100DA800D72E013051020318DA2EDB2EE82E8312DB
:100DB8000313D101D2010030C6000030C500003055
:100DC800C4000030C300D001831203135108D700B8
:100DD800571CEF2EF02EF22EC517F62E7F30C700C7
:100DE8004708C5055708C7000310470CC600500838
:100DF800C7004708C6049C2D080004308316031357
:100E0800320200300319310203180B2F0C2FCA2F9E
:100E1800310883120313B1008316031332088312B7
:100E28000313B200B301B40100300A128A15462731
:100E38000A128A11831203133408C6003308C50046
:100E48003208C4003108C3004430C2007F30C100FA
:100E5800C030C0000030BF000A128A112E250A12C5
:100E68008A11831203134208E0004108DF0040089A
:100E7800DE003F08DD0083160313360883120313D0
:100E8800B00083160313350883120313AF008316CB
:100E98000313340883120313AE00831603133308B5
:100EA80083120313AD000A128A11CB270A128A1182
:100EB800831203133008B4002F08B3002E08B200C1
:100EC8002D08B10000300A128A1546270A128A1125
:100ED800831203133408DC003308DB003208DA001D
:100EE8003108D9000A128A1125200A128A118312A0
:100EF80003135C0883160313B000831203135B0803
:100F080083160313AF00831203135A0883160313BF
:100F1800AE0083120313590883160313AD000A1297
:100F28008A15FC250A128A11831603132E08B200AB
:100F38002D08B100CF3083120313EC006C0897051D
:100F480083160313310883120313EC0003300310D4
:100F5800EC0DFF3E031DAB2F03106C0D3039ED0077
:100F68006D08970483160313320883120313ED00E8
:100F780083160313310883120313EC000310ED0CDE
:100F8800EC0C0310ED0CEC0C6C08950008008312B7
:100F980003132D08F4002E08F5002F08F60030087A
:100FA800F70002300310F40DF50DF60DF70DFF3EB6
:100FB800031DD62F7708A3007608A2007508A100A4
:100FC8007408A0000030A7001E30A6008430A500D9
:100FD8008030A4000A128A1527250A128A11831262
:100FE80003132308B0002208AF002108AE00200830
:040FF800AD00080040
:1010000008308A000408840A8207003488341334C4
:041010000034003474
:10172C008316031788018901831603138601880128
:10173C00831203138601870188018B1750300A121C
:10174C008A15C0230A128A1508008316031307157D
:10175C000C308312031397008C101208FC390138DB
:10176C00920012158C1CBB2BBC2BB82B83160313AD
:10177C0007110800F3007308831603139300363027
:10178C0083120313940080308316031394000130EA
:10179C009100871507168B170B17831203138C11E7
:1017AC00831603138C15080083120313A400A001E5
:1017BC00A1017308F500F6017508A2007608A300D4
:1017CC00241CE92BEA2BF02B2208A0070318A10AF2
:1017DC002308A10701300310A20DA30DFF3E031D2A
:1017EC00F12B0310A40C2408031DFD2BFE2BE62B60
:1017FC002108F4002008F3000800731C062C072CA9
:10180C00102C83120313051083160313051483166F
:10181C0003170814F31C132C142C1D2C8312031304
:10182C008510831603138514831603178814731DF0
:10183C00202C212C2A2C831203130511831603133D
:10184C000515831603170815831203139F131F170F
:10185C00831603139F121F129F13831203131F145B
:10186C001030F500F50B382C000008008312031320
:10187C002D08F4002E08F5002F08F6003008F700AC
:10188C0002300310F40DF50DF60DF70DFF3E031DA0
:10189C00472C02300310F40DF50DF60DF70DFF3E3D
:1018AC00031D502C7708A3007608A2007508A10030
:1018BC007408A0000030A7001E30A6008430A500DC
:1018CC008030A4000A128A1527250A128A15831261
:1018DC0003132008FF3E83160313920008007308BD
:1018EC007404031D7A2C7B2C942CC33083120313A9
:1018FC009F051030F500F50B812C000083120313AB
:10190C009F149F188A2C8B2C872C0C131E08F50007
:10191C00F6017508F3007608F400C72C7303740401
:10192C00031D992C9A2CAD2C831203131F08C33959
:10193C0004389F001030F500F50BA22C0000831228
:10194C0003139F149F18AB2CAC2CA82C8B2C02309F
:10195C0073067404031DB32CB42CC72C831203130D
:10196C001F08C33908389F001030F500F50BBC2C4C
:10197C000000831203139F149F18C52CC62CC22C75
:10198C008B2C0800F30007307306031DCE2CCF2CD4
:10199C00D32C7030831603138F0406307306031D8B
:1019AC00D82CD92CDF2C831603130F088F396038F1
:1019BC008F0005307306031DE42CE52CEB2C8316ED
:1019CC0003130F088F3950388F0004307306031D32
:1019DC00F02CF12CF72C831603130F088F39403899
:1019EC008F0003307306031DFC2CFD2C032D831676
:1019FC0003130F088F3930388F0002307306031D24
:101A0C00082D092D0F2D831603130F088F3920383D
:101A1C008F007303031D132D142D1A2D831603131E
:101A2C000F088F3910388F007308031D1E2D1F2DC2
:101A3C00232D8F30831603138F05831603130F1476
:101A4C000800003083120313AB000030AA000030F2
:101A5C00A9000030A8002308220421042004031943
:101A6C00382D392D862DAC01AC0A492D0130F300EF
:101A7C000310A00DA10DA20DA30DF30B3E2D0130F3
:101A8C00F3007308AC07A31F4C2D4D2D3C2D0130DA
:101A9C00F3000310A80DA90DAA0DAB0DF30B4F2DE0
:101AAC0023082702031D642D22082602031D642D22
:101ABC0021082502031D642D20082402031C672D18
:101ACC00682D772D2008A4022108031C210FA502E4
:101ADC002208031C220FA6022308031C230FA702B3
:101AEC00281401300310A30CA20CA10CA00CFF3E77
:101AFC00031D782D0130AC02031D852D862D4D2D37
:101B0C002B08A3002A08A2002908A1002808A0007D
:101B1C000800831203138C1D942D952DF52D141292
:101B2C00141B992D9A2D9E2D941F9D2D9E2DA72D06
:101B3C00130883160313C200831203131413941394
:101B4C00141683160313941AAC2DAD2DD32D141922
:101B5C00B02DB12DD32D8312031313088316031349
:101B6C00C200831203138C11141683160313141C56
:101B7C00C02DC12DBB2D8312031313088316031321
:101B8C00C20083120313130883160313C1002930F8
:101B9C00F000F00BCF2D0000F22D941AD62DD72D7E
:101BAC00F22D141DDA2DDB2DF22D831203131308E5
:101BBC0083160313C20014104308831203139300FB
:101BCC0014162930F000F00BE92D000083160313D6
:101BDC001418F12DF22DEC2D831203138C117208B5
:101BEC008A00710E8300FE0E7E0E09000310831610
:101BFC0003132F0D300D83120313EB006B08031D21
:101C0C00082E092E142E003083160313B00000305A
:101C1C00AF000030AE000030AD00952E83160313DC
:101C2C002D0883120313E600831603132E08831268
:101C3C000313E700831603132F0883120313E80022
:101C4C0083160313300883120313E9001F300310AB
:101C5C00E90CE80CE70CE60CFF3E031D2D2E660884
:101C6C00EA0083160313AF17FF30AD05FF30AE0546
:101C7C00FF30AF050030B005963083120313EB0232
:101C8C00EB1F492E4A2E682E6B08803A973E03189C
:101C9C00502E512E522E092E013003108316031391
:101CAC00B00CAF0CAE0CAD0CFF3E031D532E01302F
:101CBC0083120313E6006608EB07031D662E672EDE
:101CCC00522E832E20306B02031C6D2E6E2E7E2E18
:101CDC00092E0130E600031083160313AD0DAE0D73
:101CEC00AF0DB00D83120313E60B712E0130EB0216
:101CFC006B08031D822E832E6F2E6A080319872E04
:101D0C00882E952E83160313AD09AE09AF09B009C1
:101D1C00AD0A0319AE0A0319AF0A0319B00A080079
:101D2C0005300A128A15C8240A128A150A128A1555
:101D3C0096230A128A150A128A15AB230A128A15DF
:101D4C00003083120313B0000030AF001330AE002C
:101D5C008830AD000A128A153C240A128A158316A3
:101D6C0003133A08B2003908B1000030B600003055
:101D7C00B5001330B4008830B3000A128A11012761
:101D8C000A128A150130F3000030F4000A128A1589
:101D9C0003240A128A1583160313C1014203031D7F
:101DAC00D82ED92E202F831203130810881400303C
:101DBC00F300F4000A128A1575240A128A157308A6
:101DCC0083160313C300430883120313EE00EF01C1
:101DDC000310EE0DEF0D0310EE0DEF0D6E088316D4
:101DEC000313B900831203136F0883160313BA008D
:101DFC0038083A06031D042F370839060319072F34
:101E0C00082FD42E3A08B2003908B1000030B600C1
:101E1C000030B5001330B4008830B3000A128A11B8
:101E2C0001270A128A15831603133A08B8003908D9
:101E3C00B700D42E4208031D242F252FD42EB90110
:101E4C00BA013708380403192C2F2D2F422F0030DC
:101E5C00B100B2000030B6000030B5001330B40051
:101E6C008830B3000A128A1101270A128A158316C8
:101E7C000313B701B801D42ED42E0A128A110C28E0
:101E8C0083120313B900390803194D2F4E2F622FFB
:101E9C00B41F512F522F622F3109BB003209BC00E5
:101EAC003309BD003409BE00BB0A0319BC0A03196F
:101EBC00BD0A0319BE0A6A2F3408BE003308BD00E0
:101ECC003208BC003108BB0034083304320431043E
:101EDC00031D712F722F7B2F0030B4000030B30024
:101EEC000030B2000030B100FF2F9630BA008B2FBB
:101EFC000130B5003508BA0701300310BE0CBD0C1B
:101F0C00BC0CBB0CFF3E031D832FFE303E05031D96
:101F1C00902F912F7E2FAD2F0130B5003508BA07C9
:101F2C000130BB07003003180130BC070030031828
:101F3C000130BD07003003180130BE07013003101B
:101F4C00BE0CBD0CBC0CBB0CFF3E031DA52FFF3003
:101F5C003E05031DB22FB32F922FBF2F0130BA02B3
:101F6C000130B5000310BB0DBC0DBD0DBE0DB50B86
:101F7C00B82FBD1BC22FC32FC92F02303A02031832
:101F8C00C82FC92FB42F3A18CC2FCD2FD52FFF30F7
:101F9C00BB05FF30BC057F30BD05FF30BE0503100F
:101FAC00BA0C3A08B500B601B701B80118300310E5
:101FBC00B50DB60DB70DB80DFF3E031DDD2F350861
:101FCC00BB043608BC043708BD043808BE04390805
:101FDC000319F12FF22FF72FB41FF52FF62FF72F30
:101FEC00BE173E08B4003D08B3003C08B2003B08E5
:041FFC00B100080028
:08400000FF3FFF3FFF3FFF3FC0
:04400E00D420FF3F7C
:00000001FF
