:060000000A128A110C280F
:10000800FE00030EFA000A08FB000A128A112028D3
:100018000A128A110F28F001F101F201F301F4012B
:10002800F501F601F701F80183120313A001A101FC
:1000380083010A128A110729831203138C1D2528AC
:10004800262874281412141B2A282B282F28941FBA
:100058002E282F2834281308F80014139413141684
:1000680083160313941A39283A28552814193D2859
:100078003E285528831203131308F8008C11141610
:1000880083160313141C49284A284428831203138F
:100098001308F8001308F7000A30F900F90B522882
:1000A8007128941A582859287128141D5C285D282D
:1000B8007128831203131308F8008316031314100E
:1000C8008312031314160A30F900F90B69288316F2
:1000D80003131418702871286B28831203138C11CA
:1000E8000B1C77287828982806187B287C289828BD
:1000F800F930F9007F28F90B7E288228832883129B
:100108000313061C882889289828760803198D283F
:100118008E289028F60197287608031D942895289C
:1001280097280D30F6000B107B088A007A0E8300A2
:10013800FE0E7E0E090083120313A200073022066A
:10014800031DA728A828AC287030831603138F0432
:10015800063083122206031DB228B328B928831655
:1001680003130F088F3960388F0005308312220679
:10017800031DBF28C028C628831603130F088F390C
:1001880050388F00043083122206031DCC28CD2856
:10019800D328831603130F088F3940388F00033094
:1001A80083122206031DD928DA28E02883160313B0
:1001B8000F088F3930388F00023083122206031D52
:1001C800E628E728ED28831603130F088F3920380F
:1001D8008F0083122203031DF228F328F9288316BF
:1001E80003130F088F3910388F0083122208031D5C
:1001F800FE28FF2803298F30831603138F058316E3
:1002080003130F14080003300A128A119F200A12E0
:100218008A110A128A1127210A128A110A128A11CE
:1002280063210A128A11F7017608831203139500D5
:10023800283083120313A300A30B2029232918298C
:100248000A128A110C2883160317880189010730BE
:10025800831603138600880183120313860188011D
:100268008B150B108B17831603131514951416147E
:10027800961415151615811360300A128A11472134
:100288000A128A11080083120313A2002208831697
:1002980003139300363083120313940080308316BF
:1002A8000313940001309100871507168B170B175D
:1002B800831203138C11831603138C1508008316FD
:1002C800031307159B3092000C3083120313970019
:1002D800CF30970595018C100330920412158C1CB1
:0E02E80076297729732983160313071108005E
:08400000FF3FFF3FFF3FFF3FC0
:04400E00D420FF3F7C
:00000001FF
