:060000000A128A110C280F
:10000800FE00030EF8000A08F9000A128A112028D7
:100018000A128A110F28F001F101F201F301F4012B
:10002800F501F60183120313A001A101A201A301A6
:1000380083010A128A113729831203138C1D25287C
:10004800262874281412141B2A282B282F28941FBA
:100058002E282F2834281308F60014139413141686
:1000680083160313941A39283A28552814193D2859
:100078003E285528831203131308F6008C11141612
:1000880083160313141C49284A284428831203138F
:100098001308F6001308F5000A30F700F70B52288A
:1000A8007128941A582859287128141D5C285D282D
:1000B8007128831203131308F60083160313141010
:1000C8008312031314160A30F700F70B69288316F6
:1000D80003131418702871286B28831203138C11CA
:1000E8000B1C77287828982806187B287C289828BD
:1000F800F930F7007F28F70B7E288228832883129F
:100108000313061C882889289828740803198D2841
:100118008E289028F40197287408031D94289528A0
:1001280097280D30F4000B1079088A00780E8300A8
:10013800FE0E7E0E0900FA0007307A06031DA52878
:10014800A628AA287030831603138F0406307A066F
:10015800031DAF28B028B628831603130F088F395C
:1001680060388F0005307A06031DBB28BC28C228DA
:10017800831603130F088F3950388F0004307A061E
:10018800031DC728C828CE28831603130F088F39E4
:1001980040388F0003307A06031DD328D428DA2884
:1001A800831603130F088F3930388F0002307A0610
:1001B800031DDF28E028E628831603130F088F396C
:1001C80020388F007A03031DEA28EB28F1288316CC
:1001D80003130F088F3910388F007A08031DF5288C
:1001E800F628FA288F30831603138F058316031316
:1001F8000F14080083120313241C032904290B2954
:1002080005108316031305148316031708148312A5
:100218000313A41C10291129182985108316031308
:10022800851483160317881483120313241D1D29AC
:100238001E2925290511831603130515831603178F
:100248000815831203139F131F17831603139F1296
:100258001F129F13831203131F140330FA00FA0BA3
:1002680033293629080003300A128A119F200A12FE
:100278008A110A128A1164210A128A110A128A1131
:100288009E210A128A11013083120313A400003040
:10029800A5000A128A11FE200A128A11F5017408B3
:1002A80083120313880074089500283083120313FF
:1002B800A600A60B5D29602953290A128A110C2869
:1002C80083160317880189010730831603138600F4
:1002D800880183120313860188018B150B108B1775
:1002E800831603131514951416149614151516155C
:1002F800811360300A128A1184210A128A110800B7
:10030800FA007A0883160313930036308312031316
:1003180094008030831603139400013091008715F0
:1003280007168B170B17831203138C1183160313ED
:100338008C1508008316031307159B3092000C30A8
:10034800831203139700CF30970595018C10033063
:10035800920412158C1CB129B229AE2983160313F5
:040368000711080071
:08400000FF3FFF3FFF3FFF3FC0
:04400E00D420FF3F7C
:00000001FF
