:060000000A128A110C280F
:10000800FE00030EF0000A08F1000A128A114F29B7
:100018000A128A110F28FA01FB0183010A128A11B8
:100028004029003083120313A4000030A3000030DD
:10003800A2000030A1007508740473047204031947
:10004800262827287428A501A50A37280130A000EA
:100058000310F20DF30DF40DF50DA00B2C28013053
:10006800A0002008A507F51F3A283B282A280130B8
:10007800A0000310A10DA20DA30DA40DA00B3D28F7
:1000880075087902031D522874087802031D522846
:1000980073087702031D522872087602031C55283C
:1000A800562865287208F6027308031C730FF702B6
:1000B8007408031C740FF8027508031C750FF90205
:1000C800211401300310F50CF40CF30CF20CFF3E74
:1000D800031D66280130A502031D732874283B28D8
:1000E8002408F5002308F4002208F3002108F20090
:1000F8000800F20007307206031D83288428882828
:100108007030831603138F0406307206031D8D2882
:100118008E289428831603130F088F3960388F00B0
:1001280005307206031D99289A28A0288316031300
:100138000F088F3950388F0004307206031DA52828
:10014800A628AC28831603130F088F3940388F0070
:1001580003307206031DB128B228B828831603138A
:100168000F088F3930388F0002307206031DBD2802
:10017800BE28C428831603130F088F3920388F0030
:100188007203031DC828C928CF28831603130F0834
:100198008F3910388F007208031DD328D428D82827
:1001A8008F30831603138F05831603130F1408006B
:1001B80028308312031394008316031391018312CA
:1001C80003132608AA002708AB002808AC00290852
:1001D800AD0002300310AA0DAB0DAC0DAD0DFF3E06
:1001E800031DEE282D08F5002C08F4002B08F30059
:1001F8002A08F2000030F9007A30F8001230F700CF
:100208000030F6000A128A1115200A128A117208A3
:10021800FF3E831603139300940187150716080001
:100228008316031788018901073083160313860094
:1002380085018801831203138501860188018901DC
:100248008B150B108B17831603131514951416149E
:100258009614151516158113003083120313A9007F
:100268000130A8008630A700A030A6000A128A1123
:10027800DC200A128A11080007300A128A117D2030
:100288000A128A110A128A1114210A128A114B2998
:100298000A128A110C2871088A00700E8300FE0E5B
:0402A8007E0E0900BD
:08400000FF3FFF3FFF3FFF3FC0
:04400E00D420FF3F7C
:00000001FF
