:060000000A128A110C280F
:10000800FE00030EF1000A08F2000A128A154E2DAE
:100018000A128A110F28F901FA0183160313B7018E
:10002800B801B901BA01BB01BC01BD01BE01BF01E4
:10003800C001C101C201C301C40183010A128A15AA
:10004800172E831203135B08803983160313A0004D
:10005800831203135B08E000600783160313A600EE
:1000680083120313DA1F39283A283D28831603130D
:1000780026148316031326080319432844285628F0
:10008800260A031D482849285328003083120313E1
:10009800DB000030DA000030D9000030D8008312CD
:1000A800DA176028003083120313DB000030DA000F
:1000B8000030D9000030D8005F088039E0006008BF
:1000C80083160313A006831203135F08E00060077A
:1000D80083160313A10083120313DE1F74287528E7
:1000E8007828831603132114831603132108031990
:1000F8007E287F289128210A031D832884288E289A
:10010800003083120313DF000030DE000030DD0012
:100118000030DC008312DE179B28003083120313A3
:10012800DF000030DE000030DD000030DC00831628
:10013800031321080319A128A228A7282608031DAC
:10014800A628A728B228003083120313DB0000304A
:10015800DA000030D9000030D8002D2D83120313A7
:100168005808F3005E080A128A1501240A128A1137
:10017800740883160313AC007308AB002B088312B2
:100188000313E000E101E201E301630883160313AE
:10019800A50083120313620883160313A4008312B5
:1001A8000313610883160313A30083120313600863
:1001B80083160313A2002C0883120313E000E10145
:1001C800E201E301630883160313AA0083120313F1
:1001D800620883160313A9008312031361088316A8
:1001E8000313A80083120313600883160313A700E0
:1001F800831203135908F3005D080A128A150124B3
:100208000A128A11740883160313AC007308AB0032
:100218002B0883120313E000E101E201E301600807
:1002280083160313A207831203136108031103182B
:10023800013E0319222983160313A307831203130C
:10024800620803110318013E03192D2983160313AD
:10025800A40783120313630803110318013E03194B
:10026800382983160313A507831203138316031370
:100278002C0883120313E000E101E201E3016008A6
:1002880083160313A70783120313610803110318C6
:10029800013E0319522983160313A8078312031377
:1002A800620803110318013E03195D29831603131D
:1002B800A90783120313630803110318013E0319E6
:1002C800682983160313AA078312031383160313DB
:1002D800831203135A08F3005C080A128A150124D2
:1002E8000A128A11740883160313AC007308AB0052
:1002F8002B0883120313E000E101E201E301600827
:1003080083160313A207831203136108031103184A
:10031800013E0319922983160313A30783120313BB
:10032800620803110318013E03199D29831603135C
:10033800A40783120313630803110318013E03196A
:10034800A82983160313A50783120313831603131F
:100358002C0883120313E000E101E201E3016008C5
:1003680083160313A70783120313610803110318E5
:10037800013E0319C22983160313A8078312031326
:10038800620803110318013E0319CD2983160313CC
:10039800A90783120313630803110318013E031905
:1003A800D82983160313AA0783120313831603138A
:1003B800083083120313E000031083160313A20D01
:1003C800A30DA40DA50D83120313E00BE029590812
:1003D800F3005C080A128A1501240A128A117408AB
:1003E80083160313AC007308AB002B0883120313A6
:1003F800E000831603132C0883120313E100E201C3
:10040800E301600883160313A2078312031361082C
:1004180003110318013E0319142A83160313A307B3
:1004280083120313620803110318013E03191F2ADC
:1004380083160313A4078312031363080311031815
:10044800013E03192A2A83160313A50783120313EF
:1004580083160313831203135808F3005D080A1266
:100468008A1501240A128A11740883160313AC0032
:100478007308AB002B0883120313E00083160313E1
:100488002C0883120313E100E201E30160088316DC
:100498000313A20783120313610803110318013E13
:1004A8000319592A83160313A30783120313620837
:1004B80003110318013E0319642A83160313A407C2
:1004C80083120313630803110318013E03196F2AEB
:1004D80083160313A5078312031383160313083027
:1004E80083120313E000031083160313A20DA30D58
:1004F800A40DA50D83120313E00B772A5808F30007
:100508005C080A128A1501240A128A1174088316D3
:100518000313AC007308AB002B0883120313E0002D
:10052800831603132C0883120313E100E201E3018D
:10053800600883160313A2078312031361080311CB
:100548000318013E0319AB2A83160313A30783126A
:100558000313620803110318013E0319B62A831610
:100568000313A40783120313630803110318013E3E
:100578000319C12A83160313A507831203138316CD
:100588000313831203135908F3005E080A128A152D
:1005980001240A128A11740883160313AC00730825
:1005A800AB002B0883120313E000831603132C08F7
:1005B80083120313E100E201E301600883160313C9
:1005C800A70783120313610803110318013E0319D7
:1005D800F02A83160313A807831203136208031172
:1005E8000318013E0319FB2A83160313A907831274
:1005F8000313630803110318013E0319062B83161E
:100608000313AA0783120313831603138312031316
:100618005A08F3005D080A128A1501240A128A1181
:10062800740883160313AC007308AB002B088312FD
:100638000313E000831603132C0883120313E1004D
:10064800E201E301600883160313A707831203136B
:10065800610803110318013E0319352B8316031390
:10066800A80783120313620803110318013E031934
:10067800402B83160313A90783120313630803117E
:100688000318013E03194B2B83160313AA07831281
:10069800031383160313831203135A08F3005E0827
:1006A8000A128A1501240A128A1174088316031380
:1006B800AC007308AB002B0883120313E000831609
:1006C80003132C0883120313E100E201E30108304D
:1006D8000310E00DE10DE20DE30DFF3E031D6C2B51
:1006E800600883160313A707831203136108031115
:1006F8000318013E0319832B83160313A8078312DB
:100708000313620803110318013E03198E2B831685
:100718000313A90783120313630803110318013E87
:100728000319992B83160313AA078312031383163D
:100738000313220883120313E0008316031323080C
:1007480083120313E100831603132408831203138F
:10075800E20083160313250883120313E3001830FD
:100768000310E30CE20CE10CE00CFF3E031DB42B7C
:10077800600883160313A707831203136108031184
:100788000318013E0319CB2B83160313A807831202
:100798000313620803110318013E0319D62B8316AD
:1007A8000313A90783120313630803110318013EF7
:1007B8000319E12B83160313AA0783120313831665
:1007C8000313083083120313E00003108316031386
:1007D800A20DA30DA40DA50D83120313E00BE92BA5
:1007E800831603132608210783120313E000E1018F
:1007F800E10D6008823E83160313AB0083120313D6
:1008080061080318013EFF3E83160313AC00392C20
:10081800013083120313E000031083160313A70D9E
:10082800A80DA90DAA0D83120313E00B102C831633
:100838000313A51F202C212C222C271401308312EE
:100848000313E000031083160313A20DA30DA40DD8
:10085800A50D83120313E00B262CFF308316031318
:10086800AB070318AC0AFF30AC07A91F3C2C3D2C82
:100878000C2CA101A51F412C422C702CFF30220505
:1008880083120313E000FF3083160313230583123A
:100898000313E100FF3083160313240583120313A7
:1008A800E2007F3083160313250583120313E30048
:1008B80063086204610460040319632C642C692CC6
:1008C80083160313A101A10A702C83160313271C96
:1008D8006E2C6F2C702C642C21080319742C752C29
:1008E800C22C0130A707003003180130A8070030D8
:1008F80003180130A907003003180130AA072A1C81
:10090800862C872CC22C270883120313E000831639
:100918000313280883120313E1008316031329081D
:1009280083120313E200831603132A0883120313A6
:10093800E3000130E400630DE30CE20CE10CE00C91
:10094800E40B9F2C630883160313AA008312031376
:10095800620883160313A900831203136108831620
:100968000313A80083120313600883160313A70058
:100978000130AB070318AC0A0030AC072C08803AEA
:10098800FF0080307F02031DCB2CFF302B02031C9D
:10099800CE2CCF2CDA2C7F3083160313AA0080309C
:1009A800A9000030A8000030A7000F2D83160313FC
:1009B8002C08803AFF0080307F02031DE52C0130AF
:1009C8002B020318E82CE92CF52C003083160313AE
:1009D800AA000030A9000030A8000030A700A0013C
:1009E8000F2D831603132B08A600FF30A705FF3031
:1009F800A8057F30A9050030AA05261C042D052D61
:100A0800062DA917260883120313E0000310600CB3
:100A180083160313AA00200883120313E00060085A
:100A280083160313AA042A0883120313DB00831610
:100A38000313290883120313DA0083160313280803
:100A480083120313D9008316031327088312031391
:100A5800D80008008312031345088039CF004508E1
:100A6800C6004607D600C41F3A2D3B2D3C2D561410
:100A780056080319402D412D512D560A031D452DA9
:100A8800462D4E2D0030C5000030C4000030C30094
:100A98000030C200C417C501592D0030C500003010
:100AA800C4000030C3000030C20041088039C600CD
:100AB8004608CF064108C6004607D700C01F652D67
:100AC800662D672D5714570803196B2D6C2D7C2D37
:100AD800570A031D702D712D792D0030C10000308B
:100AE800C0000030BF000030BE00C017C101842D17
:100AF8000030C1000030C0000030BF000030BE0030
:100B0800410840043F043E04031D8B2D8C2DA52D68
:100B18000030C5000030C4000030C3000030C200FF
:100B28008030C4047F30C5044F08C6004608C50499
:100B38004508C1004408C0004308BF004208BE0081
:100B4800002F5608031DA92DAA2DB32D0030C10072
:100B58000030C0000030BF000030BE00002F560833
:100B6800C600C7014708C90057084602C800031C49
:100B7800C90348087F3ED00049080318013E003EDB
:100B8800D1004508CE004408CD004308CC004208F7
:100B9800CB000030C5000030C4000030C300003076
:100BA800C2000030D5000030D4000030D30000303F
:100BB800D200D701292E57080319E32DE42D042E5E
:100BC8000130C6000310CB0DCC0DCD0DCE0DC60BDC
:100BD800E62D0130C6000310C20DC30DC40DC50DAE
:100BE800C60BEF2DD51FF92DFA2DFB2D4214013020
:100BF800C6000310D20DD30DD40DD50DC60BFD2D97
:100C080041084E02031D122E40084D02031D122EEC
:100C18003F084C02031D122E3E084B02031C152EE2
:100C2800162E252E55173E08CB023F08031C3F0FF2
:100C3800CC024008031C400FCD024108031C410FA1
:100C4800CE020130C6004608D7071A305702031CE7
:100C58002E2E2F2EDF2D4E084D044C044B04031965
:100C6800362E372E562E5214562E0130C60003103B
:100C7800C20DC30DC40DC50DC60B3B2ED51F452E89
:100C8800462E472E42140130C6000310D20DD30D54
:100C9800D40DD50DC60B492EFF30D0070318D10A45
:100CA800FF30D107C41F592E5A2E392ED701D51F10
:100CB8005E2E5F2E7B2EFF305205C600FF30530597
:100CC800C700FF305405C8007F305505C9004908E2
:100CD8004804470446040319722E732E762ED70152
:100CE800D70A7B2E421C792E7A2E7B2E732E57081C
:100CF80003197F2E802EB12E0130C2070030031851
:100D08000130C307003003180130C407003003184E
:100D18000130C507451C912E922EB12E4208C600FF
:100D28004308C7004408C8004508C9000130CA0084
:100D3800490DC90CC80CC70CC60CCA0B9C2E490817
:100D4800C5004808C4004708C3004608C20001306F
:100D5800D0070318D10A0030D1075108803AFF00A4
:100D680080307F02031DBA2EFF305002031CBD2EB7
:100D7800BE2ECC2EFF3083120313D0000030D100DA
:100D88000030C5000030C4000030C3000030C2008D
:100D9800831203135108803AFF0080307F02031D3D
:100DA800D72E013050020318DA2EDB2EE82E8312DC
:100DB8000313D001D1010030C5000030C400003059
:100DC800C3000030C200CF01831203135008D600BD
:100DD800561CEF2EF02EF22EC417F62E7F30C600CA
:100DE8004608C4055608C6000310460CC5004F083F
:100DF800C6004608C5049C2D08000430831603135A
:100E0800320200300319310203180B2F0C2FCA2F9E
:100E1800310883120313B0008316031332088312B8
:100E28000313B100B201B30100300A128A15462734
:100E38000A128A11831203133308C5003208C4004A
:100E48003108C3003008C2004430C1007F30C00000
:100E5800C030BF000030BE000A128A112E250A12C7
:100E68008A11831203134108DF004008DE003F089F
:100E7800DD003E08DC0083160313360883120313D3
:100E8800AB0083160313350883120313AA008316D5
:100E98000313340883120313A900831603133308BA
:100EA80083120313A8000A128A11CB270A128A1187
:100EB800831203132B08B3002A08B2002908B100D3
:100EC8002808B00000300A128A1546270A128A112B
:100ED800831203133308DB003208DA003108D90023
:100EE8003008D8000A128A1125200A128A118312A2
:100EF80003135B0883160313B000831203135A0805
:100F080083160313AF0083120313590883160313C0
:100F1800AE0083120313580883160313AD000A1298
:100F28008A15AC260A128A11831603132E08B200FA
:100F38002D08B100CF3083120313EB006B0897051F
:100F480083160313310883120313EB0003300310D5
:100F5800EB0DFF3E031DAB2F03106B0D3039EC007A
:100F68006C08970483160313320883120313EC00EA
:100F780083160313310883120313EB000310EC0CE0
:100F8800EB0C0310EC0CEB0C6B08950008008312BB
:100F980003132808AC002908AD002A08AE002B0866
:100FA800AF0002300310AC0DAD0DAE0DAF0DFF3E1E
:100FB800031DD62F2F08A3002E08A2002D08A1007C
:100FC8002C08A0000030A7001E30A6008430A50021
:100FD8008030A4000A128A15AF250A128A118312DA
:100FE80003132308AB002208AA002108A90020083F
:040FF800A800080045
:1010000008308A000408840A8207003488341334C4
:041010000034003474
:101778008316031307150C308312031397008C107C
:101788001208FC390138920012158C1CCC2BCD2B79
:10179800C92B831603130711080083160317880142
:1017A8008901073083160313860088018312031307
:1017B8008601870188018B1750300A128A15E723A2
:1017C8000A128A150800F30073088316031393009E
:1017D8003630831203139400803083160313940069
:1017E80001309100871507168B170B178312031307
:1017F8008C11831603138C15080083120313A4009D
:10180800A001A1017308F500F6017508A200760889
:10181800A300241C102C112C172C2208A007031835
:10182800A10A2308A10701300310A20DA30DFF3E52
:10183800031D182C0310A40C2408031D242C252C8C
:101848000D2C2108F4002008F3000800731C2D2C2F
:101858002E2C372C8312031305108316031305143B
:10186800831603170814F31C3A2C3B2C442C8312C0
:10187800031385108316031385148316031788141E
:10188800731D472C482C512C831203130511831602
:1018980003130515831603170815831203139F13E3
:1018A8001F17831603139F121F129F13831203130C
:1018B8001F141030F500F50B5F2C00000800831290
:1018C80003132808AC002908AD002A08AE002B082D
:1018D800AF0002300310AC0DAD0DAE0DAF0DFF3EE5
:1018E800031D6E2C02300310AC0DAD0DAE0DAF0D07
:1018F800FF3E031D772C2F08A3002E08A2002D08F9
:10190800A1002C08A0000030A7001E30A6008430DB
:10191800A5008030A4000A128A15AF250A128A157C
:10192800831203132008FF3E831603139200080056
:1019380073087404031DA12CA22CBB2CC330831282
:1019480003139F051030F500F50BA82C0000831237
:1019580003139F149F18B12CB22CAE2C0C131E0825
:10196800F500F6017508F3007608F400EE2C730311
:101978007404031DC02CC12CD42C831203131F081C
:10198800C33904389F001030F500F50BC92C00004E
:10199800831203139F149F18D22CD32CCF2CB22C54
:1019A800023073067404031DDA2CDB2CEE2C831230
:1019B80003131F08C33908389F001030F500F50BD2
:1019C800E32C0000831203139F149F18EC2CED2CBA
:1019D800E92CB22C0800F30007307306031DF52C20
:1019E800F62CFA2C7030831603138F040630730616
:1019F800031DFF2C002D062D831603130F088F39A6
:101A080060388F0005307306031D0B2D0C2D122D29
:101A1800831603130F088F3950388F00043073066C
:101A2800031D172D182D1E2D831603130F088F392C
:101A380040388F0003307306031D232D242D2A2DD3
:101A4800831603130F088F3930388F00023073065E
:101A5800031D2F2D302D362D831603130F088F39B4
:101A680020388F007303031D3A2D3B2D412D83161B
:101A780003130F088F3910388F007308031D452D85
:101A8800462D4A2D8F30831603138F0583160313B3
:101A98000F140800831203138C1D532D542DA82DE9
:101AA8001412141B582D592D5D2D941F5C2D5D2D7E
:101AB800622D1308FA0014139413141683160313D3
:101AC800941A672D682D862D14196B2D6C2D862D73
:101AD800831203131308FA008C11141683160313C8
:101AE800141C772D782D722D831203131308FA0016
:101AF800130883160313C3002930F000F00B822D5E
:101B08000000A52D941A892D8A2DA52D141D8D2D23
:101B18008E2DA52D831203131308FA0083160313C1
:101B28001410440883120313930014162930F0008C
:101B3800F00B9C2D0000831603131418A42DA52D5B
:101B48009F2D831203138C1172088A00710E830073
:101B5800FE0E7E0E09000030F7000030F60000305F
:101B6800F5000030F4008312031323082204210433
:101B780020040319C02DC12D0E2EF801F80AD12D0D
:101B88000130F3000310A00DA10DA20DA30DF30B5E
:101B9800C62D0130F3007308F807A31FD42DD52DE7
:101BA800C42D0130F3000310F40DF50DF60DF70DFB
:101BB800F30BD72D23082702031DEC2D220826023C
:101BC800031DEC2D21082502031DEC2D20082402FD
:101BD800031CEF2DF02DFF2D2008A4022108031C63
:101BE800210FA5022208031C220FA6022308031CAA
:101BF800230FA702741401300310A30CA20CA10C2C
:101C0800A00CFF3E031D002E0130F802031D0D2E0F
:101C18000E2ED52D7708A3007608A2007508A1001E
:101C28007408A000080005300A128A15EF240A1269
:101C38008A150A128A15D1230A128A150A128A15D8
:101C4800BC230A128A15003083120313AB0000303C
:101C5800AA001330A9008830A8000A128A15632444
:101C68000A128A15831603133A08B2003908B1001C
:101C78000030B6000030B5001330B4008830B3002F
:101C88000A128A1101270A128A150130F30000305E
:101C9800F4000A128A152A240A128A1583160313D5
:101CA800C30183120313071087140030F300F400F4
:101CB8000A128A159C240A128A15730883160313BC
:101CC800C400440883120313ED00EE010310ED0D68
:101CD800EE0D0310ED0DEE0D6D0883160313B9001C
:101CE800831203136E0883160313BA0038083A06E2
:101CF800031D802E370839060319832E842E9B2E48
:101D08003A08B2003908B1000030B6000030B5001A
:101D18001330B4008830B3000A128A1101270A125E
:101D28008A15831603133A08B8003908B700043037
:101D38003A02003003193902031CA32EA42E552E93
:101D4800FF30B9000330BA00552E0A128A110C2848
:101D58000310831603132F0D300D83120313EA00AB
:101D68006A08031DB82EB92EC42E0030831603133B
:101D7800B0000030AF000030AE000030AD00452F9D
:101D8800831603132D0883120313E5008316031328
:101D98002E0883120313E600831603132F088312F9
:101DA8000313E70083160313300883120313E800B4
:101DB8001F300310E80CE70CE60CE50CFF3E031D92
:101DC800DD2E6508E90083160313AF17FF30AD0554
:101DD800FF30AE05FF30AF050030B00596308312F6
:101DE8000313EA02EA1FF92EFA2E182F6A08803A1E
:101DF800973E0318002F012F022FB92E0130031030
:101E080083160313B00CAF0CAE0CAD0CFF3E031DD4
:101E1800032F013083120313E5006508EA07031D49
:101E2800162F172F022F332F20306A02031C1D2F65
:101E38001E2F2E2FB92E0130E50003108316031331
:101E4800AD0DAE0DAF0DB00D83120313E50B212FB1
:101E58000130EA026A08031D322F332F1F2F690849
:101E68000319372F382F452F83160313AD09AE09F1
:101E7800AF09B009AD0A0319AE0A0319AF0A03196D
:101E8800B00A080083120313B800380803194D2F4D
:101E98004E2F622FB31F512F522F622F3009BA00D5
:101EA8003109BB003209BC003309BD00BA0A031965
:101EB800BB0A0319BC0A0319BD0A6A2F3308BD00FF
:101EC8003208BC003108BB003008BA0033083204BD
:101ED80031043004031D712F722F7B2F0030B300A3
:101EE8000030B2000030B1000030B000FF2F963053
:101EF800B9008B2F0130B4003408B9070130031042
:101F0800BD0CBC0CBB0CBA0CFF3E031D832FFE306E
:101F18003D05031D902F912F7E2FAD2F0130B4006A
:101F28003408B9070130BA07003003180130BB077D
:101F3800003003180130BC07003003180130BD071A
:101F480001300310BD0CBC0CBB0CBA0CFF3E031DCA
:101F5800A52FFF303D05031DB22FB32F922FBF2FA2
:101F68000130B9020130B4000310BA0DBB0DBC0D2D
:101F7800BD0DB40BB82FBC1BC22FC32FC92F023005
:101F880039020318C82FC92FB42F3918CC2FCD2FD9
:101F9800D52FFF30BA05FF30BB057F30BC05FF30B9
:101FA800BD050310B90C3908B400B501B601B70175
:101FB80018300310B40DB50DB60DB70DFF3E031D57
:101FC800DD2F3408BA043508BB043608BC043708CA
:101FD800BD0438080319F12FF22FF72FB31FF52F7F
:101FE800F62FF72FBD173D08B3003C08B2003B0899
:081FF800B1003A08B000080036
:08400000FF3FFF3FFF3FFF3FC0
:04400E00D420FF3F7C
:00000001FF
